:020000040800F2
:1000000000800020E10500083106000831060008E4
:100010003106000831060008310600080000000023
:10002000000000000000000000000000A51E000805
:100030003106000800000000A71E0008A91E0008E5
:1000400031060008310600083106000831060008B4
:1000500031060008310600083106000831060008A4
:100060003106000831060008310600083106000894
:100070003106000831060008310600083106000884
:1000800031060008310600083106000800000000B3
:100090000000000000000000000000003106000821
:1000A000B11E000831060008C11E00083106000814
:1000B0000000000000000000000000003106000801
:1000C0003106000831060008310600083106000834
:1000D00031060008D11E00083106000800000000AB
:1000E0003106000831060008000000000000000092
:1000F00000000000000000000000000031060008C1
:1001000000000000000000003106000800000000B0
:100110000000000000000000E11E000800000000D8
:1001200031060008310600083106000831060008D3
:100130003106000800000000000000000000000080
:1001400000000000000000000000000000000000AF
:1001500031060008310600083106000831060008A3
:10016000000000000000000000000000000000008F
:10017000000000000000000000000000000000007F
:1001800031060008310600080000000000000000F1
:100190000000000031060008000000000000000020
:1001A000000000000000000000000000000000004F
:1001B0000000000000000000000000003106000800
:0801C0003106000831060008B9
:1001D00010B5054C237833B9044B13B10448AFF381
:1001E00000800123237010BDE40100200000000006
:1001F0005C42000808B5034B1BB103490348AFF349
:10020000008008BD00000000E80100205C420008FA
:1002100053B94AB9002908BF00281CBF4FF0FF316D
:100220004FF0FF3000F072B9ADF1080C6DE904CE6B
:1002300000F006F8DDF804E0DDE9022304B07047C1
:100240002DE9F047089E04468846002B4BD18A4290
:10025000154667D9B2FA82F24AB1C2F1200701FA13
:1002600002F320FA07F7954047EA030894404FEA63
:10027000154E230CB8FBFEF71FFA85FC0EFB178802
:1002800043EA084307FB0CF1994209D9EB1807F13F
:10029000FF3080F01B81994240F21881023F2B44CD
:1002A0005B1AA4B2B3FBFEF00EFB103344EA034426
:1002B00000FB0CFCA44509D92C1900F1FF3380F098
:1002C0000781A44540F2048102382C4440EA0740EB
:1002D000A4EB0C0400271EB1D4400023C6E9004360
:1002E0003946BDE8F0878B4209D9002E00F0EB803B
:1002F0000027C6E9000138463946BDE8F087B3FA61
:1003000083F7002F47D18B4202D3824200F2FA805A
:10031000841A61EB030301209846002EE0D0C6E961
:100320000048DDE702B9FFDEB2FA82F2002A40F0AF
:100330008F80491B4FEA154E1FFA85F80127B1FB44
:10034000FEFC230C0EFB1C1143EA014308FB0CF1DD
:10035000994207D9EB180CF1FF3002D2994200F212
:10036000CD808446591AA3B2B1FBFEF00EFB1014E7
:1003700043EA044408FB00F8A04507D92C1900F112
:10038000FF3302D2A04500F2B6801846A4EB080461
:1003900040EA0C409FE7C7F1200CBB4022FA0CFE5C
:1003A0004EEA030E01FA07F420FA0CF521FA0CF3D9
:1003B0004FEA1E482543B3FBF8F92C0C08FB193310
:1003C0001FFA8EFA44EA034309FB0AF49C4202FA3C
:1003D00007F200FA07F10BD91EEB030309F1FF3016
:1003E00080F087809C4240F28480A9F10209734426
:1003F0001B1BADB2B3FBF8F008FB103345EA034416
:1004000000FB0AFAA24508D91EEB040400F1FF33F1
:100410006BD2A24569D90238744440EA0940A0FB76
:100420000289A4EB0A044C45C2464B4654D351D032
:10043000002E69D0B1EB0A0564EB030404FA0CFC4E
:10044000FD40FC404CEA0505C6E90054002747E79B
:10045000C2F1200320FA03F7954001FA02F021FAD5
:1004600003F34FEA154E3843010CB3FBFEF71FFAB6
:1004700085F80EFB173341EA034107FB08F38B4273
:1004800004FA02F407D9691807F1FF3C2FD28B4216
:100490002DD9023F2944CB1A81B2B3FBFEF00EFBEB
:1004A000103341EA034100FB08F38B4207D9691876
:1004B00000F1FF3C17D28B4215D902382944C91AE2
:1004C00040EA07473BE73746304609E70746E7E695
:1004D0001846FBE64145ABD2B8EB020A69EB0E02C7
:1004E00001381346A4E76046E9E7184695E76746F2
:1004F000D1E781467CE702382C4447E7ACF1020C97
:100500002B442FE7384608E73746E9E6704700BF37
:1005100010F8012B11F8013B012A28BF9A42F7D0AD
:10052000D01A7047034613F8012B002AFBD1181A82
:1005300001387047000000000000000000000000CB
:1005400001F0FF01102A2BDB10F0070F08D010F884
:10055000013B013A8B422DD010F0070F42B3F6D188
:10056000F0B441EA012141EA014122F007047FF0A1
:1005700000070023F0E80256083C85EA010586EAF8
:10058000010685FA47F5A3FA87F586FA47F6A5FA34
:1005900087F68EB9EED1F0BC01F0FF0102F0070240
:1005A00032B110F8013B013A83EA010313B1F8D1EB
:1005B0000020704701387047002D06BF35460338CC
:1005C000073815F0010F07D1013015F4807F02BF05
:1005D000013015F4C03F0130F0BC0138704700BF56
:1005E000DFF834D0002103E00C4B5B58435004315A
:1005F0000B480C4B42189A42F6D30B4A02E00023F8
:1006000042F8043B094B9A42F9D301F071FC03F024
:1006100023F901F027FB70470080002024450008E3
:1006200000000020E4010020E40100207404002008
:10063000FEE7000008B503460B4A126842B10A4AB9
:10064000106803446A46934206D8074A136008BDFF
:10065000054A06491160F2E703F0F8F80C2303603D
:100660004FF0FF30F3E700BF0002002078040020C5
:1006700082B003795A1CD2B28DF807200233DBB264
:100680008DF806309DF80730DBB2072B1BD09DF8A4
:100690000630DBB2072B1AD042799DF80730DBB267
:1006A0009A421AD002689DF80730DBB2D1549DF807
:1006B0000730037142799DF80630DBB29A420AD0C6
:1006C000002002B0704700238DF80730DFE70023D9
:1006D0008DF80630E0E70120F3E70120F1E710B5DF
:1006E00082B0044690F83C300133DBB28DF807301D
:1006F0009DF80730DBB2052B15D094F83D309DF8FE
:100700000720D2B2934212D09DF8073003EB430387
:100710009800204403F0A4F99DF8073084F83C3099
:10072000002002B010BD00238DF80730E5E701334B
:10073000DBB284F83D30052BE6D1002384F83D3050
:10074000E2E7027943799A420DD00133DBB243717B
:10075000072B05D002684379D35C0B7000207047EB
:1007600000234371F6E70120704790F83C2090F891
:100770003D309A4216D010B50133DBB280F83D30DF
:10078000052B0BD00C4690F83D2002EB4202910065
:100790000144204603F064F9002010BD002380F8D6
:1007A0003D30EFE70120704700234371037170472C
:1007B0000B78C2547047002303E02022C254013357
:1007C000DBB28B42F9D370470023052B07DCC15CF9
:1007D000054AD25C914204D101335BB2F5E70120B6
:1007E00070470020704700BF380300200E4A0260A7
:1007F0000E4B43608360C36003614261836103F514
:100800008063C3614FF4807303844FF48062428439
:10081000102383842021C1840821018542854FF45F
:1008200000528285C38570470000024000040240E8
:1008300010B50C4630B1012819D002282CD003285D
:100840003FD010BD0122098D206901F000FD00227A
:10085000618D606901F0FBFC0022A18DA06901F0AF
:10086000F6FC0022E18DE06901F0F1FCE9E70122EC
:10087000498D606901F0EBFC0022218D206901F0B7
:10088000E6FC0022A18DA06901F0E1FC0022E18DCF
:10089000E06901F0DCFCD4E70122898DA06901F058
:1008A000D6FC0022218D206901F0D1FC0022618D4F
:1008B000606901F0CCFC0022E18DE06901F0C7FC29
:1008C000BFE70122C98DE06901F0C1FC0022618D02
:1008D000606901F0BCFC0022A18DA06901F0B7FCA9
:1008E0000022218D206901F0B2FCAAE738B5054647
:1008F0000C460020FFF79CFF218C206801F0A0FC33
:10090000003018BF01202870618C606801F098FCED
:10091000003018BF01202871A18CA06801F090FC64
:10092000003018BF01202872E18CE06801F088FCDB
:10093000003018BF0120287321460120FFF778FFFF
:10094000218C206801F07CFC003018BF0120687009
:10095000618C606801F074FC003018BF0120687180
:10096000A18CA06801F06CFC003018BF01206872F7
:10097000E18CE06801F064FC003018BF012068736E
:1009800021460220FFF754FF218C206801F058FC1B
:10099000003018BF0120A870618C606801F050FC25
:1009A000003018BF0120A871A18CA06801F048FC9C
:1009B000003018BF0120A872E18CE06801F040FC13
:1009C000003018BF0120A87321460320FFF730FF35
:1009D000218C206801F034FC003018BF0120E87041
:1009E000618C606801F02CFC003018BF0120E871B8
:1009F000A18CA06801F024FC003018BF0120E8722F
:100A0000E18CE06801F01CFC003018BF0120E873A5
:100A100038BD0000014B53F82000704774420008B5
:100A200070B584B00446574B00221A70564B012211
:100A30001A70564B93F90030032B0CD0544B1B7893
:100A4000A3B1544B1B781BB3534B1B78DBB22A2B3F
:100A50000FD004B070BD514E514D0FCD306071605C
:100A6000B260F360204600F0EBFCF2E700F0E8FC37
:100A7000E7E74A4A4B4B03CB1060516019889B78DB
:100A80001181937200F0A8FF204600F0D9FCE0E746
:100A9000204600F0E4FC3E4B1B78DBB2052B20D84F
:100AA0003B4B1B78DBB2052B17D03F4B1B78EBB1D0
:100AB000394B1A78364C21463C48FFF779FE5822CC
:100AC00021463B48FFF774FE23780133DBB22370E5
:100AD00010213248FFF76FFE08E0204600F0B8FC16
:100AE000E3E72D4B1B78DBB2232B10D02A4B1B786E
:100AF000DBB2432BADD106212C48FFF75CFE06216B
:100B00002B48FFF758FE224B00221A70A1E7204B1A
:100B100000221A702548FFF757FEB8B1204600F0B2
:100B20008FFC1E4A234B03CB106051601B8813813E
:100B300006211E48FFF73FFE06211D48FFF73BFE3A
:100B4000124B00221A7000F055FFCFE7204600F04C
:100B500077FC0E4C94F90020C2F102021649684657
:100B600002F05EFF69460D4802F07AFF06210F4849
:100B7000FFF721FE06210E48FFF71DFE2378013303
:100B80002370B3E734030020C80200203F03002095
:100B9000E602002035030020A4020020CC02002041
:100BA000F8420008D0420008C9020020E8020020F4
:100BB0001C030020DC420008E842000838B500248D
:100BC00004E013B9294B00221A5501340F2C17DC0D
:100BD000274B1B5D002BF4D0244A125D002AF0D174
:100BE0000125224B1D55E0B2FFF714FFC0B2214B87
:100BF0001870214A13782B441370204B1D70E4E7C2
:100C00001C4B1B78DBB2312B2BD01A4B1B78DBB281
:100C1000322B26D0174B1B78DBB2332B21D0154B50
:100C20001B78DBB2342B1CD0124B1B78DBB2352B7C
:100C300017D0104B1B78DBB2362B12D00D4B1B7824
:100C4000DBB2372B0DD00B4B1B78DBB2382B08D027
:100C5000084B1B78DBB2392B03D0094B00221A70EA
:100C600002E0074B01221A7038BD00BF9402002039
:100C700024030020A4020020CA0200203403002024
:100C8000C90200200C4BDA6822F08072DA60DA6860
:100C900042F08072DA60094B1A6822F001021A6091
:100CA0001A6842F001021A6000225A605A6800BFB6
:100CB00000BF5868801A7047F0ED00E0001000E0B7
:100CC0007047000038B51E4B9A6901329A61DB69A2
:100CD0001BB11B4AD369013BD361002401E00134FD
:100CE000E4B2174B1B78A34227D92546144B03EBDC
:100CF00084035B68002BF2D01A7812F0020FEED05A
:100D00009A680AB1013A9A600D4B03EB8503586863
:100D10008368002BE3D1C36801699847084B03EB54
:100D200085056B685A689A601A7812F0010FD6D15F
:100D30001A786FF341021A70D1E7FFF7C1FF38BD8F
:100D400008020020014B9869704700BF080200208C
:100D500000F13F4000F57E00C0F38F207047000097
:100D600008B5FFF7F5FF04490B6B012202FA00F00A
:100D700003430B6308BD00BF003802402DE9F84F64
:100D800004460E46154699469DF828709DF82C801D
:100D9000FFF7DEFFC0B2002301E00133DBB20F2B0F
:100DA0003BD846FA03F212F0010FF6D04FF0010ED5
:100DB0000EFA03FE1A4931F810204EEA020221F819
:100DC0001020E1684FEA430C032202FA0CF2D243EE
:100DD000114007FA0CFB41EA0B01E1602168114068
:100DE00005FA0CFB41EA0B012160691EC9B2012919
:100DF000D3D861681FFA8EFE21EA0E0E09FA03FAB3
:100E00001FFA8AFA4EEA0A016160A1680A4008FAEC
:100E10000CFC42EA0C02A260BFE7BDE8F88F00BFFD
:100E20002802002001B97047F0B583B00F461E4676
:100E300015460446FFF794FF9DF8243001939DF872
:100E40002030009333462A4639462046FFF796FF66
:100E500003B0F0BD70B582B0224E0024019400941E
:100E6000234601224FF480513046FFF7DBFF1E4D31
:100E7000019400942346012280212846FFF7D2FFE7
:100E8000019400942346012240213046FFF7CAFF17
:100E9000019400942346012240212846FFF7C2FF17
:100EA00001940094234601224FF400612846FFF785
:100EB000B9FF01940094234601224FF48051284643
:100EC000FFF7B0FF4FF08053B3614FF40002AA6107
:100ED0004FF48002B261AA614FF00062AA61AB6177
:100EE00002B070BD000402400000024038B510F0AE
:100EF000080F3FD0294B4FF480529A6110F0040F35
:100F00003DD0264B4FF400629A6110F0020F3BD0A7
:100F1000224B40229A6110F0010F3AD1204B4FF43E
:100F200080029A611D4B80229A6114241D4B5D68DA
:100F300001F0ACFA1C4BA3FB0030800C04FB00F466
:100F4000184B5B685B1BA342FAD3144B4FF40002AF
:100F50009A611424134B5D6801F098FA124BA3FBBD
:100F60000030800C04FB00F40E4B5B685B1BA3425B
:100F7000FAD338BD094B4FF080529A61BEE7074B58
:100F80004FF000629A61C0E7044B4FF480029A610F
:100F9000C1E7034B40229A61C4E700BF0000024052
:100FA00000040240001000E083DE1B4310B504463D
:100FB000054B4FF080529A610009FFF797FF04F04C
:100FC0000F00FFF793FF10BD0004024000B583B08F
:100FD0000C4B1B6801930C4BDB788B4200D8002133
:100FE000094B5871997102AB194411F8043C18442B
:100FF00040B260F07F00C0B2FFF7D8FF03B05DF8E9
:1010000004FB00BFB44200084402002010B50446AF
:10101000054B4FF480529A610009FFF767FF04F017
:101020000F00FFF763FF10BD0004024038B5012038
:10103000FFF7BCFF40F6B834074B5D6801F026FAB5
:10104000064BA3FB0030800C04FB00F4024B5B68F2
:101050005B1BA342FAD338BD001000E083DE1B43C4
:1010600010B51446FFF7B2FF18E0164B0020587178
:1010700099790131C9B29971FFF7A8FF15E0114BB9
:1010800099790131C9B299715879FFF79FFF04E04E
:101090000C4B99790020FFF799FF0134237883B135
:1010A000084B5A791B799A42DFD220780A28E6D079
:1010B0000D28EDD0FFF7AAFF024A5379013353718F
:1010C000EBE710BD4402002008B5054B187840F04E
:1010D0000400187040F00800FFF768FF08BD00BF6B
:1010E00044020020F8B507460E46FFF7CBFDFFF798
:1010F000B1FE4AF6C874464B5D6801F0C7F9454B2E
:10110000A3FB0030800C04FB00F4414B5B685B1BCD
:10111000A342FAD3404BDE701F7100225A719A71BC
:101120005A70012E01D908225A700320FFF7DEFE03
:1011300041F29414364B5D6801F0A8F9354BA3FBDE
:101140000030800C04FB00F4314B5B685B1BA34256
:10115000FAD30320FFF7CAFE41F294142C4B5D68CA
:1011600001F094F92B4BA3FB0030800C04FB00F43E
:10117000274B5B685B1BA342FAD30320FFF7B6FE45
:1011800041F29414224B5D6801F080F9214BA3FBDE
:101190000030800C04FB00F41D4B5B685B1BA3421A
:1011A000FAD30220FFF7A2FE6424194B5D6801F018
:1011B0006DF9184BA3FB0030800C04FB00F4144BBA
:1011C0005B685B1BA342FAD3134C607840F02000AD
:1011D000FFF7ECFE04232370FFF776FFFFF726FFEF
:1011E0000223A3700620FFF7E1FE41F29414084B9E
:1011F0005D6801F04BF9074BA3FB0030800C04FB4A
:1012000000F4034B5B685B1BA342FAD3F8BD00BF3D
:10121000001000E083DE1B4344020020F0B585B0DF
:10122000074600240094019402944A4D4A4E2246F7
:101230002946304601F05BFD22464849304601F020
:1012400081FD2A78464903A802F0EAFB2B78092B96
:1012500061D86846FFF766F9424B1B882DF80030CD
:10126000012203A9684602F003FC6846FFF75AF919
:101270003D4B1B882DF80030364C6278384903A866
:1012800002F0CEFB6378092B4BD86846FFF74AF98A
:10129000344B1B882DF80030012203A9684602F068
:1012A000E7FB01223B21684602F0E2FB2B4CA278CF
:1012B0002B4903A802F0B4FBA378092B37D8684662
:1012C000FFF730F9274B1B882DF80030012203A9C6
:1012D000684602F0CDFB6846FFF724F9234B1B88D4
:1012E0002DF800301D4C62781D4903A802F098FBD0
:1012F0006378092B21D9022203A9684602F0B8FBC2
:1013000001220021684602F0B3FB69463846FFF728
:10131000E6F905B0F0BD022203A9684602F0A8FB79
:10132000A3E7022203A9684602F0A2FBB9E7022262
:1013300003A9684602F09CFBCDE76846FFF7F2F888
:10134000084B1B882DF80030012203A9684602F0E3
:101350008FFBD5E7B4020020F8020020F002002045
:10136000084300080C430008104300081443000819
:1013700010B582B004464278BAB9807802F062FAB9
:10138000124B18702279DAB16379114901A802F081
:1013900047FB01A802F056FA0C4B587000220B498B
:1013A0000C4801F01CFC02B010BD8378084901A86C
:1013B00002F036FB01A802F045FA044B1870E1E791
:1013C000607902F03FFA014B5870E7E7B402002061
:1013D00018430008F802002010B582B00446427895
:1013E000BAB9807802F02EFA124B98702279DAB1ED
:1013F0006379114901A802F013FB01A802F022FA57
:101400000C4B587000220B490C4801F07BFB02B0DA
:1014100010BD8378084901A802F002FB01A802F080
:1014200011FA044B9870E1E7607902F00BFA014B76
:101430005870E7E7F002002018430008F802002087
:1014400008B503681A6900221A6101F0D7FC08BDCB
:1014500008B5036800225A6201F0DCFC08BD03688D
:1014600000225A62036819691A61704710B501F0C9
:10147000D1FC0024084B1C7006210848FFF79BF99B
:1014800010210748FFF797F906210648FFF793F95F
:10149000054B1C7010BD00BFC8020020E8020020F0
:1014A000CC0200201C030020E602002038B50C46C8
:1014B000154601F0AFFC2846FFF776F903492046B0
:1014C00000F008F8024B01221A7038BD20430008D2
:1014D000F402002038B505460C460846FFF722F80E
:1014E00082B22146284602F070F838BD38B505466C
:1014F0000C4691F83C2091F83D309A4218D0244B8C
:1015000019782046FFF7B4F8A8B1224B01221A70CF
:101510002846FFF79DFF1E4B1B78242B0FD01C4B3A
:101520001B78542B1BD0442B21D0632B27D038BDE4
:10153000FFF786FFE3E72846FFF791FFEBE7164B3F
:101540001B78002BEBD00123124A1370134A13703F
:101550002846FFF77DFF2046FFF726F9DFE70E4A12
:101560001278002ADFD00E4A01211170DBE70A4A07
:101570001278002AD9D00B4A01211170D5E7064B09
:101580001B78002BD3D0084B01221A70CFE700BF85
:10159000A6020020E7020020F40200204103002000
:1015A00040030020A5020020DC02002070B50646A2
:1015B0000D465C4B00221A705B4B1B78EBB1144656
:1015C000594B1A7006E0594921442846FFF7B9F8EB
:1015D0000134E4B2062CF6D9554B01221A70554954
:1015E0005248FEF795FF00B170BD534B01221A70AF
:1015F00052493046FFF76EFFF6E7514B1B789BB11F
:1016000000244F4B1C7006E0484921442846FFF750
:1016100098F80134E4B2062CF6D9454B01221A7031
:101620004248FFF7A5FEDFE7464B1B78002B34D07E
:101630000024444B1C7006E03C4921442846FFF737
:1016400080F80134E4B2062CF6D9394B01221A7025
:101650003648FFF7C1FEC7E73B4921442846FFF75C
:1016600070F80134E4B2062CF6D9314B01221A701D
:10167000364B1B789BB9304B1B780BB32E4B00229B
:101680001A703148FFF7A0F8A8B131493046FFF78A
:1016900021FF2E4B01221A70A6E70024E3E72B4B13
:1016A00000221A7028492B4802F0DAF92A493046FC
:1016B000FFF710FF98E729493046FFF70BFF93E744
:1016C0002148FFF781F838B3254B1B7893B925499A
:1016D0003046FFF7FFFE00F08DF910212248FFF79A
:1016E0006AF806212148FFF766F806211648FFF739
:1016F00062F879E71E493046FFF7ECFE00F06CF91E
:1017000006211148FFF757F806211848FFF753F84C
:10171000184B00221A7067E710493046FFF7DAFECF
:1017200062E700BFE7020020DC020020E0020020A8
:10173000F402002034430008CB0200203C430008A0
:1017400040030020A5020020E8020020EE02002055
:101750006C43000838030020584300088043000809
:10176000350300208C430008CC0200201C0300201D
:10177000AC430008E60200202DE9F04188B00024C7
:10178000039404940594069407940094344B1A6BC4
:1017900042F001021A631A6B02F001020092009AF1
:1017A00001941A6B42F004021A631A6B02F00402ED
:1017B0000192019A02941A6B42F002021A631B6BA7
:1017C00003F002030293029B264D22464FF48461EC
:1017D000284600F03CFDDFF8948022461021404668
:1017E00000F035FD204E224642F20801304600F05E
:1017F0002EFD4FF484630393012704970594069408
:1018000003A9284600F054FC102303930497059481
:10181000069403A9404600F04BFC4FF48663039303
:1018200004944FF00208CDF8148003A9304600F06C
:101830003FFC42F20803039304970594069403A91E
:10184000304600F035FC4FF4807303930494CDF8D8
:10185000148003A9284600F02BFC08B0BDE8F081F5
:10186000003802400000024000040240000802402C
:1018700010B504460268204B9A4208D022681F4BDC
:101880009A420BD022681E4B9A4214D010BD1D49BB
:101890001D48FFF72BF8FFF791F9EFE71B4B1B787B
:1018A0001BB11B48FFF7E2FDECE71A4A1A4918483A
:1018B000FFF7FCFDE6E7194B1B78002BE6D0184B31
:1018C0001B785BB9164B01221A7016491648FEF7B1
:1018D0004CFF58B1114B00221A70D7E713490E483C
:1018E000FFF7F8FD0E4B00221A70CFE70D490A48AA
:1018F000FFF7F0FDCAE700BF0010004000480140BC
:10190000004001403804002024030020C8020020C9
:101910008403002000000020440300204103002035
:1019200018030020A80200204C020020C843000831
:1019300008B505490548FFF7D9FD012204490548C6
:1019400001F067FE08BD00BF0000002084030020F6
:10195000A60200204403002010B51348FEF746FFFE
:1019600002211020FFF7BEFB104801F047FA104893
:1019700001F044FA00240F4B1C700F4B0F4A106803
:1019800018609188927999809A7101220C490D48CA
:1019900001F03FFE0C4B1C700C4B01221A700C4BDB
:1019A0001C700C4B1C7010BD38040020C0030020BC
:1019B000FC030020CA02002038030020CC430008AA
:1019C000A602002044030020E6020020F4020020CA
:1019D0003F0300203503002008B50022034B1A7096
:1019E0002021034800F033FC08BD00BF3503002070
:1019F0000000024008B50122044B1A70202104485F
:101A000000F025FC0348FFF709FC08BD3503002062
:101A1000000002404C020020FEE7000000B583B049
:101A20000023009301930D480D4A02605322426047
:101A3000836040F2E733C36001F078FB50B90023C4
:101A4000009301936946054801F089FB20B903B072
:101A50005DF804FBFFF7E0FFFFF7DEFFC0030020A7
:101A60000010004008B50A480A4B03604FF41653B3
:101A7000436000238360C36003610C224261836181
:101A8000C36101F073FD00B908BDFFF7C5FF00BFDA
:101A9000440300200010014008B50948094B0360C9
:101AA00042F2CF0343600023836042F20F72C260B0
:101AB000036101F03BFB00B908BDFFF7ADFF00BFBC
:101AC000840300200048014000B587B00023019343
:101AD000029303930493059300931A481A4A0260F1
:101AE00043607F228260FF22C260036143618361A1
:101AF00000F09BFFF8B900228DF804208DF8052036
:101B00008DF806200492059201A90E4801F067F8AD
:101B100098B901238DF800308DF801308DF802302E
:101B200000228DF803206946064800F0EBFF30B92B
:101B300007B05DF804FBFFF76FFFFFF76DFFFFF7DE
:101B40006BFF00BFF80200200028004000B585B000
:101B5000002300930193029303930E480E4A026000
:101B600053224260836047F22F52C260036101F04A
:101B7000DDFA58B904A94FF4805341F8103D0548E7
:101B800001F05EF920B905B05DF804FBFFF744FFF2
:101B9000FFF742FFFC0300200040014000B59BB06E
:101BA000342200210DEB020001F07AFE002308939D
:101BB00009930A930B930C93029303930493059355
:101BC000069307930093254A116C41F080511164EC
:101BD000126C02F080520092009A0193204A116820
:101BE00041F440411160126802F440420192019AAE
:101BF0000A220D92012210921021119112920222BA
:101C00001392149315914FF4A8731693042317930A
:101C1000189319920DA800F009FDC8B90F23089375
:101C20000221099100230A934FF480520B920C93E6
:101C300008A800F07FFB68B9042302934FF40073F7
:101C4000049302A800F048FC30B91BB05DF804FB17
:101C5000FFF7E2FEFFF7E0FEFFF7DEFE003802408E
:101C60000070004008B500F08DF9FFF797FFFFF70F
:101C700083FDFFF7D3FEFFF7F5FEFFF70DFFFFF73C
:101C800023FFFFF763FFFFF767FE0EE00D490E48E5
:101C9000FFF78CFC0DE00D4A01210020FFF7E0F971
:101CA0000B4A00210846FFF7DBF90A4B1B78002B93
:101CB000ECD1094B1B78002BEDD008490848FEF702
:101CC000AFFEE8E70000002044030020CC02002023
:101CD0001C030020E7020020340300204C020020F7
:101CE0008403002000B583B0002100910C4B5A6C96
:101CF00042F480425A645A6C02F480420092009A84
:101D000001911A6C42F080521A641B6C03F08053EC
:101D10000193019B072000F04FF903B05DF804FB2D
:101D2000003802400268044B9A4200D07047034BCF
:101D300001221A60FAE700BF002800403C0E47422B
:101D400000B585B00368244A934208D0234A9342E1
:101D500019D0234A93422AD005B05DF804FB002134
:101D60000191204B1A6C42F010021A641B6C03F0B4
:101D700010030193019B0A46362000F02FF936200C
:101D800000F060F9E8E700210291164B5A6C42F42A
:101D900080325A645B6C03F480330293029B0A46E0
:101DA000182000F01BF9182000F04CF9D4E70021AE
:101DB00003910C4B5A6C42F480225A645B6C03F41E
:101DC00080230393039B0A461A2000F007F91A2088
:101DD00000F038F9C0E700BF0010004000400140AB
:101DE00000480140003802402DE9F04188B000234E
:101DF00003930493059306930793026803F18043CA
:101E000003F588339A4202D008B0BDE8F08100247F
:101E1000009403F594335A6C42F010025A645A6CE1
:101E200002F010020092009A01941A6B42F0010233
:101E30001A631A6B02F001020192019A02941A6B62
:101E400042F002021A631B6B03F002030293029B2F
:101E50004FF4007303934FF00208CDF81080012770
:101E60000597032606960725079503A90B4800F05A
:101E70001FF980230393CDF81080059706960795E8
:101E800003A9074800F014F922462146252000F056
:101E9000A5F8252000F0D6F8B6E700BF0000024004
:101EA000000402407047704708B5FEF70BFF08BDFD
:101EB00008B5024801F04CF808BD00BFFC03002043
:101EC00008B5024801F044F808BD00BF84030020B3
:101ED00008B5024801F01EFC08BD00BF4403002005
:101EE00008B5024801F034F808BD00BFC003002067
:101EF0000F49D1F8883043F47003C1F888300D4B96
:101F00001A6842F001021A60002098601A6822F0F4
:101F1000847222F480321A60074A5A601A6822F4E6
:101F200080221A60D8604FF000638B60704700BF5A
:101F300000ED00E0003802401030002410B50446E7
:101F40000E4B18784FF47A73B3FBF0F30C4A106819
:101F5000B0FBF3F000F082F868B90F2C01D9012032
:101F60000AE0002221464FF0FF3000F037F8034B23
:101F70005C60002000E0012010BD00BF0C000020CC
:101F80000800002008B50B4B1A6842F400721A6072
:101F90001A6842F480621A601A6842F480721A6009
:101FA000032000F009F80020FFF7C8FFFFF79AFEB2
:101FB000002008BD003C0240074AD36823F4E063D8
:101FC0001B041B0C000200F4E060184340F0BF60EB
:101FD00040F40030D060704700ED00E030B4174BA3
:101FE000DB68C3F30223C3F10704042C28BF0424D5
:101FF0001D1D062D18D9033B4FF0FF3505FA04F4DB
:1020000021EA0401994005FA03F322EA0303194384
:1020100000280BDB0901C9B200F1604000F5614006
:1020200080F8001330BC70470023E5E700F00F0094
:102030000901C9B2024B1954F4E700BF00ED00E0FA
:1020400014ED00E000F01F02400901239340024A12
:1020500042F82030704700BF00E100E00138B0F1E5
:10206000807F0AD2064B5860064AF02182F823107E
:102070000020986007221A6070470120704700BF57
:1020800010E000E000ED00E090F83530DBB2022B0C
:1020900003D08023436501207047052380F8353045
:1020A0000268136823F001031360002070470000EA
:1020B00000230F2B00F2BA80F0B482B074E0846881
:1020C00006EA040CCC68BC4044EA0C048460446812
:1020D00024EA02024C68C4F300149C401443446098
:1020E000C26816408A68BA403243C2604A6812F039
:1020F000805F56D0002201924D4A546C44F48044D3
:102100005464526C02F480420192019A9C08A61C0D
:10211000484A52F8267003F0030296000F22B2409C
:1021200027EA0207444A904279D002F58062904241
:1021300077D002F5806290426FD00722B2403A43D6
:1021400002343C4E46F824203C4A1468EA4302EA32
:1021500004064F6817F4803F01D045EA0406374C67
:102160002660646802EA04064F6817F4003F01D055
:1021700045EA0406314C6660A46802EA04064F682A
:1021800017F4801F01D045EA04062C4CA660E468D1
:1021900022404E6816F4001F01D045EA0402274C85
:1021A000E26001330F2B3ED801229A400C6804EA0A
:1021B0000205AA42F5D14C68022C01D0122C10D194
:1021C000DE08083650F826C003F00704A7000F24E5
:1021D000BC402CEA040C0C69BC4044EA0C0440F8F6
:1021E000264004685F000326BE40F64306EA040C5E
:1021F0004C6804F00304BC4044EA0C0404604C68DE
:1022000004F1FF3CBCF1010F7FF659AF112C3FF4F4
:1022100056AF122C7FF464AF51E702228EE7002202
:102220008CE701228AE702B0F0BC7047704700BF1C
:10223000003802400038014000000240003C0140EC
:102240000369194201D1002070470120704712B97B
:10225000090481617047816170470000324B9B68BF
:1022600003F00C03042B5CD0082B01D02F487047DF
:102270002DE9F04B2C4B5A6802F03F025B6813F4D7
:10228000800F2BD0284B5B68C3F388131E460027B2
:102290005C010025E41A65EB0705A90141EA946198
:1022A000A001001B61EB0501CB0043EA5073C400A1
:1022B000A01943EB07014B0243EAD05344022046E6
:1022C00019460023FDF7A4FF174B5B68C3F30143D6
:1022D00001335B00B0FBF3F0BDE8F08B124B5B68A1
:1022E000C3F388131E4600275C010025E41A65EB42
:1022F0000705A90141EA9461A001001B61EB0501FA
:10230000CB0043EA5073C400A01943EB07018B02D2
:1023100043EA90538402204619460023FDF778FFD4
:10232000D2E70348704700BF003802400024F400A1
:1023300000127A00002800F09D8070B504464F4BD3
:102340001B6803F00F038B4209D2CBB24B4A1370C8
:10235000136803F00F038B4201D0012070BD236886
:1023600013F0020F17D013F0040F04D0444A9368FF
:1023700043F4E0539360236813F0080F04D0404AFD
:10238000936843F4604393603D4A936823F0F003FD
:10239000A068034393600D46236813F0010F32D009
:1023A0006368012B21D09A1E012A25D9344A12686C
:1023B00012F0020F60D032498A6822F00302134300
:1023C0008B60FEF7BFFC06462D4B9B6803F00C03A9
:1023D0006268B3EB820F16D0FEF7B4FC801B41F2AB
:1023E00088339842F0D90320B8E7254A126812F4DE
:1023F000003FE0D10120B1E7214A126812F0007FCE
:10240000D9D10120AAE71D4B1B6803F00F03AB4293
:1024100009D9EAB2194B1A701B6803F00F03AB42DB
:1024200001D001209AE7236813F0040F06D0144A64
:10243000936823F4E053E1680B439360236813F03F
:10244000080F07D00E4A936823F46043216943EADA
:10245000C1039360FFF702FF094B9B68C3F30313AB
:10246000084AD35CD840084B18600020FFF766FD8F
:10247000002073E70120704701206FE7003C024015
:1024800000380240B842000808000020014B1868DC
:10249000704700BF0800002008B5FFF7F7FF044BA6
:1024A0009B68C3F38223034AD35CD84008BD00BFB6
:1024B00000380240C842000808B5FFF7E7FF044BA8
:1024C0009B68C3F34233034AD35CD84008BD00BFC6
:1024D00000380240C842000830B583B004460368A3
:1024E00013F0040F30D1236813F0020F02D0227DC5
:1024F0004A4B1A60236813F0080F08D0484AD2F8F4
:10250000943023F4400321690B43C2F894302368CC
:1025100013F0100F08D0424AD2F8943023F0404311
:10252000E1680B43C2F89430236813F0010F72D0B6
:102530003B4AD2F88C3023F0C06361680B43C2F889
:102540008C30002003B030BD00230193344B1A6C53
:1025500042F080521A641B6C03F080530193019B7C
:10256000304A136843F480731360FEF7EBFB0546B3
:102570002C4B1B6813F4807F06D1FEF7E3FB401B56
:102580000228F5D90320DDE7254B1B6F13F44073B8
:1025900012D0A26802F440729A420DD0204B1A6FFA
:1025A00022F44072204901200860002008601A6768
:1025B0001B6F13F0010F12D1A36803F44072B2F540
:1025C000407F1DD0164A936823F4F8139360144992
:1025D0000B6FA268C2F30B0213430B6783E7FEF78E
:1025E000B1FB05460E4B1B6F13F0020FE4D1FEF753
:1025F000A9FB401B41F288339842F3D90320A1E79D
:1026000007498A6822F4F81223F0704323F44073D8
:1026100013438B60DBE7002094E700BFE0114742E3
:102620000038024000700040400E474270B582B052
:102630000446036813F0010F3BD0A74B9B6803F0DF
:102640000C03042B2CD0A44B9B6803F00C03082B29
:1026500021D06368B3F5803F4FD0B3F5A02F52D09F
:102660009D4B1A6822F480321A601A6822F4802284
:102670001A606368002B50D0FEF764FB0546964B4A
:102680001B6813F4003F14D1FEF75CFB401B642869
:10269000F5D903208AE1904B5B6813F4800FD8D002
:1026A0008D4B1B6813F4003F03D06368002B00F0D0
:1026B0007A81236813F0020F55D0874B9B6813F083
:1026C0000C0F3ED0844B9B6803F00C03082B33D0D7
:1026D000E368002B68D0814B01221A60FEF732FBC1
:1026E00005467D4B1B6813F0020F54D1FEF72AFB01
:1026F000401B0228F5D9032058E1774A136843F4B8
:1027000080331360B5E7744B1A6842F480221A6074
:102710001A6842F480321A60ABE7FEF713FB0546F5
:102720006D4B1B6813F4003FC3D0FEF70BFB401B3F
:102730006428F5D9032039E1674B5B6813F4800FF7
:10274000C6D1654B1B6813F0020F04D0E368012B60
:1027500001D001202AE1604A136823F0F8032169BF
:1027600043EAC1031360236813F0080F40D0636984
:1027700063B35B4B01221A60FEF7E4FA0546564B41
:102780005B6F13F0020F33D1FEF7DCFA401B022817
:10279000F5D903200AE1504A136823F0F8032169B0
:1027A00043EAC1031360DEE74C4B00221A60FEF7D8
:1027B000C9FA0546484B1B6813F0020FD3D0FEF749
:1027C000C1FA401B0228F5D90320EFE0444B002258
:1027D0001A60FEF7B7FA05463F4B5B6F13F0020F26
:1027E00006D0FEF7AFFA401B0228F5D90320DDE042
:1027F000236813F0040F78D0374B1B6C13F0805F05
:1028000033D100230193344B1A6C42F080521A6486
:102810001B6C03F080530193019B0125314B1B6816
:1028200013F4807F23D0A368012B34D0052B38D03C
:10283000294B1A6F22F001021A671A6F22F0040264
:102840001A67A368002B36D0FEF77CFA0646224BA7
:102850001B6F13F0020F47D1FEF774FA801B41F291
:1028600088339842F3D90320A0E00025D6E71D4A1B
:10287000136843F480731360FEF764FA0646194B3D
:102880001B6813F4807FCED1FEF75CFA801B022810
:10289000F5D903208AE0104A136F43F00103136750
:1028A000CFE70D4B1A6F42F004021A671A6F42F01D
:1028B00001021A67C5E7FEF745FA0646064B1B6F8D
:1028C00013F0020F10D0FEF73DFA801B41F288335F
:1028D0009842F3D9032069E00038024000004742E3
:1028E000800E474200700040E5B9A369002B5CD020
:1028F000304A926802F00C02082A59D0022B17D0F5
:102900002D4B00221A60FEF71DFA0446294B1B6866
:1029100013F0007F45D0FEF715FA001B0228F5D909
:10292000032043E0234A136C23F080531364DCE755
:10293000214B00221A60FEF705FA05461D4B1B6865
:1029400013F0007F06D0FEF7FDF9401B0228F5D9F1
:1029500003202BE0E369226A1343626A43EA82138D
:10296000A26A5208013A43EA0243E26A43EA026376
:10297000226B43EA02730F4A53600F4B01221A6025
:10298000FEF7E0F904460B4B1B6813F0007F06D1FD
:10299000FEF7D8F9001B0228F5D9032006E0002035
:1029A00004E0002002E0012000E0002002B070BD41
:1029B0000120FBE7003802406000474238B504467A
:1029C0000268D36823F0A003D360FEF7BBF9054685
:1029D0002368DB6813F0200F07D1FEF7B3F9401B23
:1029E000B0F57A7FF4D9032000E0002038BD38B577
:1029F0000368DA6812F0400F01D0002038BD0446A9
:102A00004FF0FF32DA60FEF79DF905462368DB6878
:102A100013F0400F07D1FEF795F9401BB0F57A7F10
:102A2000F4D90320EAE70020E8E738B500285CD0B5
:102A30000446437F002B40D0022363772368CA22D9
:102A40005A62236853225A622046FFF7D0FF054698
:102A5000002836D12268936823F4E00323F0400372
:102A6000936021688A68636820690343606903434F
:102A700013438B602368E2681A6122681369A168B6
:102A800043EA014313612268D36823F08003D360D3
:102A900023689B6813F0200F1BD02268136C23F46B
:102AA000802313642268136CA1690B4313642368A9
:102AB000FF225A620123637709E00377FFF732F9B7
:102AC000BAE72368FF225A62042363770125284668
:102AD00038BD2046FFF772FF0028DED02368FF22B2
:102AE0005A62042363770125F1E70125EFE700230C
:102AF00002E001330A38C0B20928FAD81B01DBB260
:102B00001843704770B5037F012B66D0012303770C
:102B1000022343773AB94B7813F0100F03D003F038
:102B2000EF030A334B700E460446002A32D1C878B0
:102B3000FFF7DDFF05047078FFF7D9FF45EA0025B0
:102B4000B078FFF7D4FF2843357840EA453523684D
:102B5000CA225A62236853225A622046FFF747FF6F
:102B6000064610BB236825F07F4525F0C0055D6053
:102B70002268D36823F08003D36023689B6813F036
:102B8000200F1CD02368FF225A62012363770023A1
:102B9000237712E0CD784878000240EA05408D782E
:102BA00028430D7840EA4535D1E72368FF225A6271
:102BB00004236377002323770126304670BD204627
:102BC000FFF7FCFE0028DDD02368FF225A620423B1
:102BD0006377002323770126EFE70226EDE7F8B5B8
:102BE000037F012B78D00D4604460123037702238F
:102BF0004377002A46D103689B6813F0400F01D148
:102C00000023CB702878FFF772FF06046878FFF77F
:102C10006EFF46EA0026A878FFF769FF3043EE789A
:102C200040EA06462368CA225A62236853225A623F
:102C30002046FFF7DCFE0746002835D1236806F062
:102C40007F3626F0FE461E602268936823F48023B8
:102C5000936021688B68EA682869024313438B609C
:102C60002268D36823F08003D36023689B6813F045
:102C7000200F23D02368FF225A62012363770023A9
:102C8000237719E003689B6813F0400F01D10023FC
:102C9000CB702B786878000240EA0340AB78184389
:102CA000EE7840EA0646BDE72368FF225A62042315
:102CB00063770023237701273846F8BD2046FFF7C6
:102CC0007DFE0028D6D02368FF225A620423637752
:102CD000002323770127EFE70227EDE7030903EB42
:102CE00083035A0000F00F001044C0B2704770B563
:102CF00003689B6A4B6003681B69C3F30E038B6018
:102D000003681B6803F07F3323F0FE431D0C05F0BE
:102D10003F000870C3F306264E7003F07F048C70EA
:102D200005F04005CD705AB90D46FFF7D7FF287062
:102D30003046FFF7D3FF68702046FFF7CFFFA8703B
:102D4000002070BD70B503685B6823F07F4323F0FB
:102D5000C003180CC870C3F304264E7003F03F057F
:102D60008D70C3F342330B705AB90C46FFF7B6FFB0
:102D7000E0703046FFF7B2FF60702846FFF7AEFF05
:102D8000A070002070BD10B4036A046A24F001042E
:102D90000462846924F0F00444EA021223F00A0376
:102DA0000B43826103625DF8044B704710B4036A01
:102DB00023F0100303628469036A24F4704444EA34
:102DC000023223F0A00343EA0113826103625DF83B
:102DD000044B7047836823F0700341F007011943E7
:102DE0008160704710B4846824F47F4442EA03236E
:102DF0000B43234383605DF8044B70470268D3683C
:102E000043F00103D3600268136843F001031360C9
:102E1000002070470268D36823F00103D360036881
:102E2000196A41F21112114208D1196A40F2444262
:102E3000114203D11A6822F001021A600020704783
:102E400090F83830012B7DD010B50446012380F86E
:102E50003830022380F839300268936823F47F43C6
:102E600023F0770393600B68402B57D010D9702B59
:102E70003ED01FD8502B47D0602B32D1CA6849684A
:102E80000068FFF793FF60212068FFF7A3FF28E0A9
:102E9000102B4DD008D9202B4FD0302B21D13021F1
:102EA0000068FFF797FF1CE0DBB900210068FFF71F
:102EB00091FF16E0B3F5805F0ED0B3F5005F10D13F
:102EC000CB684A6889680068FFF78CFF22689368BE
:102ED00043F48043936004E00268936823F007039F
:102EE0009360012384F83930002084F8380010BD45
:102EF000CB684A6889680068FFF774FF22689368A6
:102F000043F077039360ECE7CA6849680068FFF70D
:102F10003AFF50212068FFF75DFFE2E7CA68496881
:102F20000068FFF730FF40212068FFF753FFD8E724
:102F300010210068FFF74EFFD3E720210068FFF75C
:102F400049FFCEE7022070477047704770477047CF
:102F500010B5044603681A6912F0020F11D0DA683E
:102F600012F0020F0DD06FF002021A6101230376F6
:102F700003689B6913F0030F70D0FFF7E6FF00238F
:102F8000237623681A6912F0040F12D0DA6812F05F
:102F9000040F0ED06FF004021A6102232376236817
:102FA0009B6913F4407F5FD02046FFF7CEFF0023DC
:102FB000237623681A6912F0080F12D0DA6812F02B
:102FC000080F0ED06FF008021A61042323762368DD
:102FD000DB6913F0030F4ED02046FFF7B6FF002346
:102FE000237623681A6912F0100F12D0DA6812F0F3
:102FF000100F0ED06FF010021A6108232376236899
:10300000DB6913F4407F3DD02046FFF79EFF00238D
:10301000237623681A6912F0010F03D0DA6812F0E0
:10302000010F36D123681A6912F0800F03D0DA68D5
:1030300012F0800F34D123681A6912F0400F03D0C8
:10304000DA6812F0400F32D123681A6912F0200FAB
:1030500003D0DA6812F0200F30D110BDFFF774FFF3
:103060002046FFF773FF8AE72046FFF76DFF2046F3
:10307000FFF76CFF9BE72046FFF766FF2046FFF750
:1030800065FFACE72046FFF75FFF2046FFF75EFFD6
:10309000BDE76FF001021A612046FEF7E9FBC1E7C8
:1030A0006FF080021A61204600F083F8C3E76FF0EA
:1030B00040021A612046FFF74AFFC5E76FF0200281
:1030C0001A61204600F074F8C7E700000368164A4A
:1030D000904203D0A2F57442904203D123F07003D2
:1030E0004A681343104A90420BD0A2F574429042B2
:1030F00007D002F59A32904203D002F50062904266
:1031000003D123F44073CA68134303608B68C3621E
:103110000B688362044B984202D0012343617047DD
:103120000B690363F9E700BF00000140A8B110B5C7
:10313000044690F839305BB1022384F83930211D00
:103140002068FFF7C3FF012384F83930002010BD49
:1031500080F83830FEF7F4FDEEE70120704790F874
:103160003830012B22D030B4012280F838200223DD
:1031700080F839300468636823F070036360046882
:1031800063680D682B4363600468A36823F08003C1
:10319000A3600468A36849680B43A36080F83920E2
:1031A000002380F83830184630BC70470220704742
:1031B000704770470268D36823F49073D360026845
:1031C000536923F001035361202380F83A3070479C
:1031D00090F83930DBB2212B2AD18368B3F5805FB8
:1031E00016D0036A5A1C02621A7803685A60C38CAC
:1031F000013B9BB2C384EBB90268D36823F0800320
:10320000D3600268D36843F04003D3600020704766
:10321000036A1B880268C3F30803536003691BB980
:10322000036A02330362E2E7036A01330362DEE703
:1032300002207047002070472DE9F84304460168DA
:103240000A6922F44052C36813430B610168CA68DB
:1032500022F4164222F00C0283680069034360697D
:103260000343E06903431343CB6021684A6922F4B6
:103270004072A36913434B61E369B3F5004F60D01B
:103280002368B84A934200F0148102F580629342A9
:1032900000F00F81FFF700F900EB800000EB8000E9
:1032A0006568AD00B0FBF5F5AF4FA7FB05356D09BF
:1032B0002E01FFF7F1F800EB800000EB800065685D
:1032C000AD00B0FBF5F9FFF7E7F800EB800000EB8D
:1032D00080006568AD00B0FBF5F5A7FB05356D090D
:1032E0004FF0640808FB15952D013235A7FB053515
:1032F0006D0905F0F0053544FFF7CEF800EB8000CE
:1033000000EB80006668B600B0FBF6F6FFF7C4F885
:1033100000EB800000EB800063689B00B0FBF3F0E3
:10332000A7FB0030400908FB10684FEA081808F1B5
:103330003208A7FB0837C7F3431723682F449F6061
:103340000DE12368874A93425BD002F58062934285
:1033500057D0FFF7A1F800EB800000EB8000656814
:103360006D00B0FBF5F5804FA7FB05356D092E010B
:10337000FFF792F800EB800000EB800065686D00BD
:10338000B0FBF5F9FFF788F800EB800000EB800058
:1033900065686D00B0FBF5F5A7FB05356D094FF0CD
:1033A000640808FB1595ED003235A7FB05356D095E
:1033B0006D0005F4F8753544FFF76EF800EB8000FA
:1033C00000EB800066687600B0FBF6F6FFF764F865
:1033D00000EB800000EB800063685B00B0FBF3F360
:1033E000A7FB03235B0908FB13684FEAC80808F131
:1033F0003208A7FB0837C7F3421723682F449F60A2
:10340000ADE0FFF759F800EB800000EB8000656845
:103410006D00B0FBF5F5544FA7FB05356D092E0186
:10342000FFF74AF800EB800000EB800065686D0054
:10343000B0FBF5F9FFF740F800EB800000EB8000EF
:1034400065686D00B0FBF5F5A7FB05356D094FF01C
:10345000640808FB1595ED003235A7FB05356D09AD
:103460006D0005F4F8753544FFF726F800EB800091
:1034700000EB800066687600B0FBF6F6FFF71CF8FC
:1034800000EB800000EB800063685B00B0FBF3F3AF
:10349000A7FB03235B0908FB13684FEAC80808F180
:1034A0003208A7FB0837C7F3421723682F449F60F1
:1034B00055E0FFF701F800EB800000EB8000656845
:1034C000AD00B0FBF5F5284FA7FB05356D092E01C2
:1034D000FEF7F2FF00EB800000EB80006568AD00B6
:1034E000B0FBF5F9FEF7E8FF00EB800000EB800091
:1034F0006568AD00B0FBF5F5A7FB05356D094FF02C
:10350000640808FB15952D013235A7FB05356D09BB
:1035100005F0F0053544FEF7CFFF00EB800000EB2F
:1035200080006668B600B0FBF6F6FEF7C5FF00EB5C
:10353000800000EB800063689B00B0FBF3F0A7FB0A
:103540000030400908FB10684FEA081808F13208FB
:10355000A7FB0837C7F3431723682F449F60BDE8D4
:10356000F88300BF001001401F85EB5158B310B520
:10357000044690F839300BB3242384F8393022689C
:10358000D36823F40053D3602046FFF755FE22682A
:10359000136923F4904313612268536923F02A03CB
:1035A00053612268D36843F40053D3600020E06382
:1035B000202384F8393084F83A3010BD80F8383050
:1035C000FEF712FCD8E70120704790F83930DBB2E3
:1035D000202B16D1B9B1C2B190F83830012B16D0DA
:1035E00001628284C2840023C363212280F83920CF
:1035F00080F838300168CA6842F08002CA60184614
:103600007047022070470120704701207047022058
:10361000704790F83A30DBB2202B1BD1E1B1EAB110
:1036200090F83830012B1BD081628285C28500233F
:10363000C363222280F83A2080F8383001684A6952
:1036400042F001024A610168CA6842F49072CA609D
:1036500018467047022070470120704701207047CC
:1036600002207047704708B50168CB6823F040031B
:10367000CB60202380F83930FFF7F4FF002008BD2D
:1036800008B590F83A30DBB2222B40D18368B3F50D
:10369000805F0ED0036903BB03685A68836A591CB4
:1036A00081621A70C38D013B9BB2C385F3B10020C8
:1036B0002EE0826A036943B903685B68C3F30803B9
:1036C0001380836A02338362ECE703685B68DBB2D2
:1036D0001380836A01338362E4E703685B68826A6C
:1036E000511C816203F07F031370DBE70268D3682B
:1036F00023F49073D3600268536923F0010353618C
:10370000202380F83A30FEF713F9002000E0022071
:1037100008BD704710B5044602681368D168526945
:1037200013F00F0005D113F0200F02D011F0200F7D
:1037300053D1002867D012F0010202D111F4907F1A
:1037400061D013F0010F06D011F4807F03D0E06B3D
:1037500040F00100E06313F0040F04D01AB1E06BF5
:1037600040F00200E06313F0020F04D01AB1E06BE6
:1037700040F00400E06313F0080F04D01AB1E26BCC
:1037800042F00802E263E26B002A48D013F0200FF7
:1037900002D011F0200F24D123685B6903F04003AD
:1037A000E26B12F0080F00D13BB32046FFF702FD99
:1037B00023685A6912F0400F1BD05A6922F0400268
:1037C0005A61636B8BB11A4A1A65606BFEF75CFC39
:1037D00028B3606B036D984721E02046FFF750FF48
:1037E0001DE02046FFF74CFFD6E72046FFF791FF8C
:1037F00015E02046FFF78DFF11E02046FFF789FF17
:103800000023E3630BE013F0800F02D011F0800F70
:1038100006D113F0400F02D011F0400F04D110BDBB
:103820002046FFF7D5FCFAE72046FFF71CFFF6E736
:103830003538000808B5806B0023C385C384FFF7C3
:1038400068FF08BD0A22002100F0A2B9014B1868E8
:10385000704700BF1400002070B50D4E0D4CA41B26
:10386000A4100025A54209D10B4E0C4C00F0F6FC2B
:10387000A41BA4100025A54205D170BD56F8253023
:1038800098470135EEE756F8253098470135F2E7BD
:103890001C4500081C4500081C4500082045000880
:1038A00002440346934200D1704703F8011BF9E735
:1038B00038B50546002945D051F8043C0C1F002BB3
:1038C000B8BFE41800F08FF91F4A1368104633B9E7
:1038D000636014602846BDE8384000F085B9A34213
:1038E0000CD921686218934204BF1A685B68636050
:1038F00004BF521822600460ECE713465A680AB10C
:10390000A242FAD919685818A0420BD12068014484
:10391000581882421960DDD1106852685A6001441B
:103920001960D7E702D90C232B60D3E72068211850
:103930008A4204BF11685268626004BF091821609E
:103940005C60C7E738BD00BF8C02002070B5CD1C9D
:1039500025F0030508350C2D38BF0C25002D064633
:1039600001DBA94203D90C233360002070BD00F0B5
:103970003AF9214A1468214691B9204C23681BB9B1
:10398000304600F03DF820602946304600F038F817
:10399000431C24D10C233360304600F025F9E4E7C2
:1039A0000B685B1B18D40B2B0FD90B60CD50CC18B8
:1039B000304600F019F904F10B00231D20F0070038
:1039C000C31AD3D05A42E250D0E78C424B6816BF9C
:1039D000636013600C46EBE70C464968CCE7C41CF7
:1039E00024F00304A04205D0211A304600F008F864
:1039F0000130CFD02560DBE78C0200209002002050
:103A000038B5064C0023054608462360FCF712FE35
:103A1000431C02D1236803B12B6038BD7004002021
:103A20000EB400B59CB01DAB029006906FF0004143
:103A3000094807910491094953F8042B059100683E
:103A4000019302A900F02CF9029B00221A701CB00D
:103A50005DF804EB03B07047140000200802FFFF7C
:103A6000034611F8012B03F8012B002AF9D1704706
:103A700030B503461C785D1C44B912F1FF3204D303
:103A800011F8014B03F8014B14B930BD2B46F1E797
:103A9000002AF2D11A70F0E72DE9F04780468946F6
:103AA00092461E460F463D46089815F8014B00F019
:103AB00085F82044437813F0080332D12D2C32D1FD
:103AC0007C78BD1C0122002E5DD0102E09D1302C37
:103AD00007D12B7803F0DF03582B4FD16C781026D9
:103AE0000235002A14BF4FF000416FF0004100275B
:103AF000B1FBF6FC384606FB1C1EA4F13003092B73
:103B000017D81C46A64223DD7B1C07D084451CD356
:103B100001D1A64519DB00FB0640012715F8014B32
:103B2000EBE72F46BFE72B2C04BFBD1C7C781A4661
:103B3000C9E7A4F14103192B01D8373CE2E7A4F10E
:103B40006103192B04D8573CDCE74FF0FF37E5E75A
:103B50007B1C08D12223C8F800300846BAF1000FB8
:103B600007D1BDE8F08702B14042BAF1000FF8D0AA
:103B70000FB105F1FF39CAF80090F2E73024002EAA
:103B8000AFD10826ADE7302CA3D00A26A9E7000064
:103B9000084B37B51C68084D236A002B08BF2B461D
:103BA000009313460A4601462046FFF775FF03B00F
:103BB00030BD00BF1400002078000020D0F8EC00D9
:103BC000704782B001B901A942B14BB113780B60C3
:103BD0001278101C18BF012002B070471046FBE796
:103BE0006FF00100F8E7704770472DE9F0478E68E5
:103BF0009E4282460C469046994637D88A8912F4EE
:103C0000906F31D0256809696F1A6569022305EB49
:103C1000450595FBF3F509F101033B449D4238BF8F
:103C20001D46530530D52946FFF790FE064650B98C
:103C30000C23CAF80030A38943F04003A3814FF05E
:103C4000FF30BDE8F0873A46216900F0B4FAA38955
:103C500023F4906343F08003A381266165613E44B1
:103C6000ED1B2660A5604E464E4500D94E463246B5
:103C70004146206800F0AAFAA3689B1BA360236852
:103C80001E4426600020DCE72A4600F0B8FA06460B
:103C90000028E2D121695046FFF70AFEC8E700007C
:103CA0002DE9F04F9DB0804603938B891D060C468D
:103CB00016460FD50B696BB94021FFF747FE206010
:103CC000206128B90C23C8F800304FF0FF30C7E05E
:103CD000402363610023099320238DF8293030238A
:103CE0008DF82A304FF0010B37463D4615F8013B61
:103CF0000BB1252B3ED1B7EB060A0BD0534632460B
:103D000021464046FFF771FF013000F0A480099B77
:103D1000534409933B78002B00F09D8000234FF023
:103D2000FF32CDE90523049307938DF853301A939E
:103D30002F46052217F8011B4F48FCF701FC049B96
:103D4000D0B9D90644BF20228DF853201A0744BFAA
:103D50002B228DF853202A782A2A15D0079A2F462D
:103D600000200A25394611F8013B303B092B4DD97B
:103D7000B8B10FE02F46B8E73F4A801A0BFA00F0BF
:103D8000184304903D46D3E7039A111D126803912E
:103D9000002A01DB079204E0524243F0020307923B
:103DA00004933B782E2B0CD17B782A2B33D1039BA9
:103DB0001A1D1B680392002BB8BF4FF0FF33023768
:103DC00005932E4D397803222846FCF7B9FB38B10C
:103DD0004023401B03FA00F0049B03430137049384
:103DE000397827488DF8281006227E1CFCF7A8FB9E
:103DF000002838D0234B13BB039B073323F0070362
:103E000008330393099B4B4409936DE705FB02328A
:103E100001200F46A6E700230137059319460A251E
:103E2000384610F8012B303A092A03D9002BC8D0A4
:103E30000591C6E705FB012101230746F0E703AB27
:103E400000932246104B04A94046AFF30080B0F126
:103E5000FF3F8146D6D1A3895B063FF536AF09986F
:103E60001DB0BDE8F08F03AB00932246064B04A9BA
:103E7000404600F081F8EAE7DE430008E44300082A
:103E8000E843000800000000EB3B00082DE9F04784
:103E900091461F468A680B69DDF820809342B8BFBF
:103EA0001346C9F8003091F8432006460C4612B17B
:103EB0000133C9F800302368990642BFD9F80030B1
:103EC0000233C9F80030256815F0060507D104F162
:103ED000190AE368D9F800209B1AAB4228DC94F851
:103EE00043302268003318BF012392062DD404F119
:103EF000430239463046C047013020D02368E56888
:103F0000D9F8002003F00603042B08BFAD1AA368FC
:103F100022690CBF25EAE57500259342C4BF9B1AB0
:103F2000ED184FF000091A344D451AD1002008E071
:103F30000123524639463046C047013003D14FF085
:103F4000FF30BDE8F0870135C3E7E1185A1C302087
:103F500081F84300224494F8451082F8431002335C
:103F6000C5E70123224639463046C0470130E6D036
:103F700009F10109D8E700002DE9F04301F1430CF4
:103F80000C46097E85B06E291746064698460C9A5F
:103F900000F0B38022D8632936D00AD8002900F077
:103FA000B980582900F0838004F1420584F842105A
:103FB00032E0642901D06929F6D12068136805062A
:103FC00003F104012AD51B681160002B03DA2D22AE
:103FD0005B4284F843206F480A2239E0732900F0DD
:103FE0009D8008D86F2920D07029DDD1236843F047
:103FF0002003236003E0752917D07829D4D17823D2
:1040000084F84530644855E01368191D1B68116039
:1040100004F1420584F8423001238CE01B681160F2
:1040200010F0400F18BF1BB2CFE713682568181DAA
:104030001060280601D51B6802E06806FBD51B88C6
:1040400054486F2914BF0A220822002184F8431023
:104050006568A560002DC0F29580216821F00401FB
:104060002160002B3DD1002D40F08E806546082A4E
:104070000BD12368DB0708D5236962689A42DEBF4B
:10408000302305F8013C05F1FF35ACEB0503236156
:10409000CDF800803B4603AA21463046FFF7F6FEE6
:1040A00001304DD14FF0FF3005B0BDE8F083394805
:1040B00084F84510136821681D1D1B6815600A06E9
:1040C0000BD5CA0744BF41F0200121601BB922680B
:1040D00022F0200222601022B7E74D0648BF9BB2B3
:1040E000EFE76546B3FBF2F102FB1133C35C05F861
:1040F000013D0B460029F5D1B9E7136825686169D0
:10410000181D106028061B6801D5196002E06A06B8
:10411000FBD51980002323616546B9E71368191D93
:1041200011601D68626800212846FCF709FA08B191
:10413000401B606063682361002384F84330A7E775
:1041400023692A4639463046C0470130AAD0236841
:104150009B0713D4E068039B9842B8BF1846A3E7B7
:1041600001234A4639463046C04701309AD00135CE
:10417000E368039A9B1AAB42F2DCEBE7002504F1FB
:104180001909F5E7002BACD1037884F8423004F12B
:1041900042056CE7EF4300080044000849B1FF2ADC
:1041A00085BF8A2303600A704FF0FF3098BF01205B
:1041B00070470846704710B5431E0A44914200D12B
:1041C00010BD11F8014B03F8014FF7E7884210B515
:1041D00001EB020307D8421E99420AD011F8014BA5
:1041E00002F8014FF8E78342F5D98118D21AD34279
:1041F00000D110BD13F8014D01F8014DF7E7F8B5F6
:10420000074614460E4621B91146BDE8F840FFF7AF
:104210009DBB22B9FFF74CFB25462846F8BD00F0B0
:1042200014F8A0420FD221463846FFF78FFB05460F
:104230000028F2D031462246FFF7BDFF314638460E
:10424000FFF736FBE9E73546E7E751F8043C181F6E
:10425000002BBCBF0B58C01870470000F8B500BF5A
:10426000F8BC08BC9E467047F8B500BFF8BC08BC57
:044270009E467047AF
:104274003100000032000000330000004100000063
:104284003400000035000000360000004200000049
:10429400370000003800000039000000430000002F
:1042A4002A00000030000000230000004400000049
:1042B4000040145400000000000000000102030448
:1042C4000607080900000000010203046C6F636B19
:1042D40020636C6F736500006C6F636B206F706597
:1042E4006E00000072656D61696E6564202564204E
:1042F400747279006B657970616420697320626CF3
:104304006F636B0025640000300000003A00000079
:104314002E000000256325630000000054696D65CC
:104324006F75742074727920616761696E0D0A007B
:10433400636870617373000073656E6420707265E6
:1043440076696F75732070617373776F72640D0A89
:104354000000000070617373776F7264206368619A
:104364006E6765640D0A000073656E64206E657780
:104374002070617373776F72640D0A006261645F09
:10438400636F64650D0A0000617070726F7072690A
:104394006174655F636F64655F6C6F636B5F6F709F
:1043A400656E0D0A00000000617070726F707269B2
:1043B4006174655F636F64655F6C6F636B5F636C8F
:1043C4006F73650D0A000000313233343536000056
:1043D4004300504F534958002E00232D302B20000A
:1043E400686C4C00656667454647003031323334AB
:1043F400353637383941424344454600303132334B
:1044040034353637383961626364656600002020CC
:104414002020202020202028282828282020202070
:104424002020202020202020202020202020881030
:104434001010101010101010101010101010040490
:104444000404040404040404101010101010104197
:104454004141414141010101010101010101010108
:10446400010101010101010101101010101010429D
:1044740042424242420202020202020202020202D8
:1044840002020202020202020210101010200000B6
:104494000000000000000000000000000000000018
:1044A4000000000000000000000000000000000008
:1044B40000000000000000000000000000000000F8
:1044C40000000000000000000000000000000000E8
:1044D40000000000000000000000000000000000D8
:1044E40000000000000000000000000000000000C8
:1044F40000000000000000000000000000000000B8
:1045040000000000000000000000000000000000A7
:084514002CBDFF7F0100000037
:04451C00F50100089D
:04452000D1010008BD
:1045240068040020000000000024F40001000000E2
:10453400100000001800002000000000000000002F
:104544000000000000000000000000000000000067
:104554000000000000000000000000000000000057
:104564000000000000000000000000000000000047
:104574000000000000000000000000000000000037
:104584000000000000000000000000000000000027
:1045940000000000000000004300000000000000D4
:1045A4000000000000000000000000000000000007
:1045B40000000000000000004300000000000000B4
:1045C40000000000000000000000000000000000E7
:1045D4000000000000000000430000000000000094
:1045E40000000000000000000000000000000000C7
:1045F4000000000000000000430000000000000074
:1046040000000000000000000000000000000000A6
:104614000000000000000000430000000000000053
:104624000000000000000000000000000000000086
:104634000000000000000000430000000000000033
:104644000000000000000000000000000000000066
:104654000000000000000000430000000000000013
:104664000000000000000000000000000000000046
:1046740000000000000000009D410008C33B00084A
:104684000000000011440008DC430008E343000874
:10469400E3430008E3430008E3430008E34300085E
:1046A400E3430008E3430008E3430008E34300084E
:1046B400FFFFFFFFFFFFFFFFFFFFFFFFFFFF000004
:1046C400010041534349490000000000000000007C
:1046D40000000000000000000000000000000000D6
:1046E400000041534349490000000000000000005D
:1046F40000000000000000000000000000000000B6
:0447040000000000B1
:04000005080005E109
:00000001FF
